{
  "_format": "hh-sol-artifact-1",
  "contractName": "NikeGobbler",
  "sourceName": "contracts/MyNFT.sol",
  "abi": [
    {
      "inputs": [],
      "stateMutability": "nonpayable",
      "type": "constructor"
    },
    {
      "anonymous": false,
      "inputs": [
        {
          "indexed": true,
          "internalType": "address",
          "name": "owner",
          "type": "address"
        },
        {
          "indexed": true,
          "internalType": "address",
          "name": "approved",
          "type": "address"
        },
        {
          "indexed": true,
          "internalType": "uint256",
          "name": "tokenId",
          "type": "uint256"
        }
      ],
      "name": "Approval",
      "type": "event"
    },
    {
      "anonymous": false,
      "inputs": [
        {
          "indexed": true,
          "internalType": "address",
          "name": "owner",
          "type": "address"
        },
        {
          "indexed": true,
          "internalType": "address",
          "name": "operator",
          "type": "address"
        },
        {
          "indexed": false,
          "internalType": "bool",
          "name": "approved",
          "type": "bool"
        }
      ],
      "name": "ApprovalForAll",
      "type": "event"
    },
    {
      "anonymous": false,
      "inputs": [
        {
          "indexed": true,
          "internalType": "address",
          "name": "previousOwner",
          "type": "address"
        },
        {
          "indexed": true,
          "internalType": "address",
          "name": "newOwner",
          "type": "address"
        }
      ],
      "name": "OwnershipTransferred",
      "type": "event"
    },
    {
      "anonymous": false,
      "inputs": [
        {
          "indexed": true,
          "internalType": "address",
          "name": "from",
          "type": "address"
        },
        {
          "indexed": true,
          "internalType": "address",
          "name": "to",
          "type": "address"
        },
        {
          "indexed": true,
          "internalType": "uint256",
          "name": "tokenId",
          "type": "uint256"
        }
      ],
      "name": "Transfer",
      "type": "event"
    },
    {
      "inputs": [
        {
          "internalType": "address",
          "name": "to",
          "type": "address"
        },
        {
          "internalType": "uint256",
          "name": "tokenId",
          "type": "uint256"
        }
      ],
      "name": "approve",
      "outputs": [],
      "stateMutability": "nonpayable",
      "type": "function"
    },
    {
      "inputs": [
        {
          "internalType": "address",
          "name": "owner",
          "type": "address"
        }
      ],
      "name": "balanceOf",
      "outputs": [
        {
          "internalType": "uint256",
          "name": "",
          "type": "uint256"
        }
      ],
      "stateMutability": "view",
      "type": "function"
    },
    {
      "inputs": [
        {
          "internalType": "uint256",
          "name": "tokenId",
          "type": "uint256"
        }
      ],
      "name": "buyListedNike",
      "outputs": [
        {
          "internalType": "bool",
          "name": "Bought",
          "type": "bool"
        }
      ],
      "stateMutability": "payable",
      "type": "function"
    },
    {
      "inputs": [
        {
          "internalType": "uint256",
          "name": "tokenId",
          "type": "uint256"
        }
      ],
      "name": "getApproved",
      "outputs": [
        {
          "internalType": "address",
          "name": "",
          "type": "address"
        }
      ],
      "stateMutability": "view",
      "type": "function"
    },
    {
      "inputs": [
        {
          "internalType": "address",
          "name": "owner",
          "type": "address"
        },
        {
          "internalType": "address",
          "name": "operator",
          "type": "address"
        }
      ],
      "name": "isApprovedForAll",
      "outputs": [
        {
          "internalType": "bool",
          "name": "",
          "type": "bool"
        }
      ],
      "stateMutability": "view",
      "type": "function"
    },
    {
      "inputs": [],
      "name": "name",
      "outputs": [
        {
          "internalType": "string",
          "name": "",
          "type": "string"
        }
      ],
      "stateMutability": "view",
      "type": "function"
    },
    {
      "inputs": [],
      "name": "owner",
      "outputs": [
        {
          "internalType": "address",
          "name": "",
          "type": "address"
        }
      ],
      "stateMutability": "view",
      "type": "function"
    },
    {
      "inputs": [
        {
          "internalType": "uint256",
          "name": "tokenId",
          "type": "uint256"
        }
      ],
      "name": "ownerOf",
      "outputs": [
        {
          "internalType": "address",
          "name": "",
          "type": "address"
        }
      ],
      "stateMutability": "view",
      "type": "function"
    },
    {
      "inputs": [],
      "name": "renounceOwnership",
      "outputs": [],
      "stateMutability": "nonpayable",
      "type": "function"
    },
    {
      "inputs": [
        {
          "internalType": "address",
          "name": "to",
          "type": "address"
        },
        {
          "internalType": "string",
          "name": "uri",
          "type": "string"
        }
      ],
      "name": "safeMint",
      "outputs": [],
      "stateMutability": "nonpayable",
      "type": "function"
    },
    {
      "inputs": [
        {
          "internalType": "address",
          "name": "from",
          "type": "address"
        },
        {
          "internalType": "address",
          "name": "to",
          "type": "address"
        },
        {
          "internalType": "uint256",
          "name": "tokenId",
          "type": "uint256"
        }
      ],
      "name": "safeTransferFrom",
      "outputs": [],
      "stateMutability": "nonpayable",
      "type": "function"
    },
    {
      "inputs": [
        {
          "internalType": "address",
          "name": "from",
          "type": "address"
        },
        {
          "internalType": "address",
          "name": "to",
          "type": "address"
        },
        {
          "internalType": "uint256",
          "name": "tokenId",
          "type": "uint256"
        },
        {
          "internalType": "bytes",
          "name": "data",
          "type": "bytes"
        }
      ],
      "name": "safeTransferFrom",
      "outputs": [],
      "stateMutability": "nonpayable",
      "type": "function"
    },
    {
      "inputs": [
        {
          "internalType": "address",
          "name": "operator",
          "type": "address"
        },
        {
          "internalType": "bool",
          "name": "approved",
          "type": "bool"
        }
      ],
      "name": "setApprovalForAll",
      "outputs": [],
      "stateMutability": "nonpayable",
      "type": "function"
    },
    {
      "inputs": [
        {
          "internalType": "bytes4",
          "name": "interfaceId",
          "type": "bytes4"
        }
      ],
      "name": "supportsInterface",
      "outputs": [
        {
          "internalType": "bool",
          "name": "",
          "type": "bool"
        }
      ],
      "stateMutability": "view",
      "type": "function"
    },
    {
      "inputs": [],
      "name": "symbol",
      "outputs": [
        {
          "internalType": "string",
          "name": "",
          "type": "string"
        }
      ],
      "stateMutability": "view",
      "type": "function"
    },
    {
      "inputs": [
        {
          "internalType": "uint256",
          "name": "index",
          "type": "uint256"
        }
      ],
      "name": "tokenByIndex",
      "outputs": [
        {
          "internalType": "uint256",
          "name": "",
          "type": "uint256"
        }
      ],
      "stateMutability": "view",
      "type": "function"
    },
    {
      "inputs": [
        {
          "internalType": "address",
          "name": "owner",
          "type": "address"
        },
        {
          "internalType": "uint256",
          "name": "index",
          "type": "uint256"
        }
      ],
      "name": "tokenOfOwnerByIndex",
      "outputs": [
        {
          "internalType": "uint256",
          "name": "",
          "type": "uint256"
        }
      ],
      "stateMutability": "view",
      "type": "function"
    },
    {
      "inputs": [
        {
          "internalType": "uint256",
          "name": "tokenId",
          "type": "uint256"
        }
      ],
      "name": "tokenURI",
      "outputs": [
        {
          "internalType": "string",
          "name": "",
          "type": "string"
        }
      ],
      "stateMutability": "view",
      "type": "function"
    },
    {
      "inputs": [],
      "name": "totalSupply",
      "outputs": [
        {
          "internalType": "uint256",
          "name": "",
          "type": "uint256"
        }
      ],
      "stateMutability": "view",
      "type": "function"
    },
    {
      "inputs": [
        {
          "internalType": "address",
          "name": "from",
          "type": "address"
        },
        {
          "internalType": "address",
          "name": "to",
          "type": "address"
        },
        {
          "internalType": "uint256",
          "name": "tokenId",
          "type": "uint256"
        }
      ],
      "name": "transferFrom",
      "outputs": [],
      "stateMutability": "nonpayable",
      "type": "function"
    },
    {
      "inputs": [
        {
          "internalType": "address",
          "name": "newOwner",
          "type": "address"
        }
      ],
      "name": "transferOwnership",
      "outputs": [],
      "stateMutability": "nonpayable",
      "type": "function"
    }
  ],
  "bytecode": "0x60806040526103e8600d553480156200001757600080fd5b506040518060400160405280600581526020017f4d794e46540000000000000000000000000000000000000000000000000000008152506040518060400160405280600481526020017f4d4e46540000000000000000000000000000000000000000000000000000000081525081600090805190602001906200009c929190620001ac565b508060019080519060200190620000b5929190620001ac565b505050620000d8620000cc620000de60201b60201c565b620000e660201b60201c565b620002c1565b600033905090565b6000600b60009054906101000a900473ffffffffffffffffffffffffffffffffffffffff16905081600b60006101000a81548173ffffffffffffffffffffffffffffffffffffffff021916908373ffffffffffffffffffffffffffffffffffffffff1602179055508173ffffffffffffffffffffffffffffffffffffffff168173ffffffffffffffffffffffffffffffffffffffff167f8be0079c531659141344cd1fd0a4f28419497f9722a3daafe3b4186f6b6457e060405160405180910390a35050565b828054620001ba906200025c565b90600052602060002090601f016020900481019282620001de57600085556200022a565b82601f10620001f957805160ff19168380011785556200022a565b828001600101855582156200022a579182015b82811115620002295782518255916020019190600101906200020c565b5b5090506200023991906200023d565b5090565b5b80821115620002585760008160009055506001016200023e565b5090565b600060028204905060018216806200027557607f821691505b602082108114156200028c576200028b62000292565b5b50919050565b7f4e487b7100000000000000000000000000000000000000000000000000000000600052602260045260246000fd5b613aa580620002d16000396000f3fe60806040526004361061012a5760003560e01c80636352211e116100ab578063a22cb4651161006f578063a22cb4651461040b578063b88d4fde14610434578063c87b56dd1461045d578063d204c45e1461049a578063e985e9c5146104c3578063f2fde38b146105005761012a565b80636352211e1461032457806370a0823114610361578063715018a61461039e5780638da5cb5b146103b557806395d89b41146103e05761012a565b806323b872dd116100f257806323b872dd146102285780632f745c591461025157806342842e0e1461028e5780634cdb49e4146102b75780634f6ccce7146102e75761012a565b806301ffc9a71461012f57806306fdde031461016c578063081812fc14610197578063095ea7b3146101d457806318160ddd146101fd575b600080fd5b34801561013b57600080fd5b5061015660048036038101906101519190612916565b610529565b6040516101639190612e03565b60405180910390f35b34801561017857600080fd5b5061018161053b565b60405161018e9190612e1e565b60405180910390f35b3480156101a357600080fd5b506101be60048036038101906101b99190612968565b6105cd565b6040516101cb9190612d9c565b60405180910390f35b3480156101e057600080fd5b506101fb60048036038101906101f691906128da565b610613565b005b34801561020957600080fd5b5061021261072b565b60405161021f91906130e0565b60405180910390f35b34801561023457600080fd5b5061024f600480360381019061024a9190612780565b610738565b005b34801561025d57600080fd5b50610278600480360381019061027391906128da565b610798565b60405161028591906130e0565b60405180910390f35b34801561029a57600080fd5b506102b560048036038101906102b09190612780565b61083d565b005b6102d160048036038101906102cc9190612968565b61085d565b6040516102de9190612e03565b60405180910390f35b3480156102f357600080fd5b5061030e60048036038101906103099190612968565b610a74565b60405161031b91906130e0565b60405180910390f35b34801561033057600080fd5b5061034b60048036038101906103469190612968565b610b0b565b6040516103589190612d9c565b60405180910390f35b34801561036d57600080fd5b506103886004803603810190610383919061271b565b610bbd565b60405161039591906130e0565b60405180910390f35b3480156103aa57600080fd5b506103b3610c75565b005b3480156103c157600080fd5b506103ca610c89565b6040516103d79190612d9c565b60405180910390f35b3480156103ec57600080fd5b506103f5610cb3565b6040516104029190612e1e565b60405180910390f35b34801561041757600080fd5b50610432600480360381019061042d919061284a565b610d45565b005b34801561044057600080fd5b5061045b600480360381019061045691906127cf565b610d5b565b005b34801561046957600080fd5b50610484600480360381019061047f9190612968565b610dbd565b6040516104919190612e1e565b60405180910390f35b3480156104a657600080fd5b506104c160048036038101906104bc9190612886565b610dcf565b005b3480156104cf57600080fd5b506104ea60048036038101906104e59190612744565b610e56565b6040516104f79190612e03565b60405180910390f35b34801561050c57600080fd5b506105276004803603810190610522919061271b565b610eea565b005b600061053482610f6e565b9050919050565b60606000805461054a90613341565b80601f016020809104026020016040519081016040528092919081815260200182805461057690613341565b80156105c35780601f10610598576101008083540402835291602001916105c3565b820191906000526020600020905b8154815290600101906020018083116105a657829003601f168201915b5050505050905090565b60006105d882610fe8565b6004600083815260200190815260200160002060009054906101000a900473ffffffffffffffffffffffffffffffffffffffff169050919050565b600061061e82610b0b565b90508073ffffffffffffffffffffffffffffffffffffffff168373ffffffffffffffffffffffffffffffffffffffff16141561068f576040517f08c379a000000000000000000000000000000000000000000000000000000000815260040161068690613040565b60405180910390fd5b8073ffffffffffffffffffffffffffffffffffffffff166106ae611033565b73ffffffffffffffffffffffffffffffffffffffff1614806106dd57506106dc816106d7611033565b610e56565b5b61071c576040517f08c379a000000000000000000000000000000000000000000000000000000000815260040161071390612fa0565b60405180910390fd5b610726838361103b565b505050565b6000600880549050905090565b610749610743611033565b826110f4565b610788576040517f08c379a000000000000000000000000000000000000000000000000000000000815260040161077f906130c0565b60405180910390fd5b610793838383611189565b505050565b60006107a383610bbd565b82106107e4576040517f08c379a00000000000000000000000000000000000000000000000000000000081526004016107db90612e40565b60405180910390fd5b600660008473ffffffffffffffffffffffffffffffffffffffff1673ffffffffffffffffffffffffffffffffffffffff168152602001908152602001600020600083815260200190815260200160002054905092915050565b61085883838360405180602001604052806000815250610d5b565b505050565b600080600e6000848152602001908152602001600020905067016345785d8a00003410156108c0576040517f08c379a00000000000000000000000000000000000000000000000000000000081526004016108b790613060565b60405180910390fd5b8060000160009054906101000a900473ffffffffffffffffffffffffffffffffffffffff1673ffffffffffffffffffffffffffffffffffffffff163373ffffffffffffffffffffffffffffffffffffffff161415610953576040517f08c379a000000000000000000000000000000000000000000000000000000000815260040161094a90612ea0565b60405180910390fd5b80600201548314610999576040517f08c379a000000000000000000000000000000000000000000000000000000000815260040161099090613080565b60405180910390fd5b60006109a484610b0b565b9050348260010160008282546109ba91906131d0565b925050819055508073ffffffffffffffffffffffffffffffffffffffff16346040516109e590612d87565b60006040518083038185875af1925050503d8060008114610a22576040519150601f19603f3d011682016040523d82523d6000602084013e610a27565b606091505b50508093505082610a6d576040517f08c379a0000000000000000000000000000000000000000000000000000000008152600401610a6490612f00565b60405180910390fd5b5050919050565b6000610a7e61072b565b8210610abf576040517f08c379a0000000000000000000000000000000000000000000000000000000008152600401610ab6906130a0565b60405180910390fd5b60088281548110610af9577f4e487b7100000000000000000000000000000000000000000000000000000000600052603260045260246000fd5b90600052602060002001549050919050565b6000806002600084815260200190815260200160002060009054906101000a900473ffffffffffffffffffffffffffffffffffffffff169050600073ffffffffffffffffffffffffffffffffffffffff168173ffffffffffffffffffffffffffffffffffffffff161415610bb4576040517f08c379a0000000000000000000000000000000000000000000000000000000008152600401610bab90613020565b60405180910390fd5b80915050919050565b60008073ffffffffffffffffffffffffffffffffffffffff168273ffffffffffffffffffffffffffffffffffffffff161415610c2e576040517f08c379a0000000000000000000000000000000000000000000000000000000008152600401610c2590612f60565b60405180910390fd5b600360008373ffffffffffffffffffffffffffffffffffffffff1673ffffffffffffffffffffffffffffffffffffffff168152602001908152602001600020549050919050565b610c7d6113f0565b610c87600061146e565b565b6000600b60009054906101000a900473ffffffffffffffffffffffffffffffffffffffff16905090565b606060018054610cc290613341565b80601f0160208091040260200160405190810160405280929190818152602001828054610cee90613341565b8015610d3b5780601f10610d1057610100808354040283529160200191610d3b565b820191906000526020600020905b815481529060010190602001808311610d1e57829003601f168201915b5050505050905090565b610d57610d50611033565b8383611534565b5050565b610d6c610d66611033565b836110f4565b610dab576040517f08c379a0000000000000000000000000000000000000000000000000000000008152600401610da2906130c0565b60405180910390fd5b610db7848484846116a1565b50505050565b6060610dc8826116fd565b9050919050565b610dd76113f0565b6000610de3600c611810565b9050600d54610df2600c611810565b1115610e33576040517f08c379a0000000000000000000000000000000000000000000000000000000008152600401610e2a90612fe0565b60405180910390fd5b610e3d600c61181e565b610e478382611834565b610e518183611852565b505050565b6000600560008473ffffffffffffffffffffffffffffffffffffffff1673ffffffffffffffffffffffffffffffffffffffff16815260200190815260200160002060008373ffffffffffffffffffffffffffffffffffffffff1673ffffffffffffffffffffffffffffffffffffffff16815260200190815260200160002060009054906101000a900460ff16905092915050565b610ef26113f0565b600073ffffffffffffffffffffffffffffffffffffffff168173ffffffffffffffffffffffffffffffffffffffff161415610f62576040517f08c379a0000000000000000000000000000000000000000000000000000000008152600401610f5990612e80565b60405180910390fd5b610f6b8161146e565b50565b60007f780e9d63000000000000000000000000000000000000000000000000000000007bffffffffffffffffffffffffffffffffffffffffffffffffffffffff1916827bffffffffffffffffffffffffffffffffffffffffffffffffffffffff19161480610fe15750610fe0826118c6565b5b9050919050565b610ff1816119a8565b611030576040517f08c379a000000000000000000000000000000000000000000000000000000000815260040161102790613020565b60405180910390fd5b50565b600033905090565b816004600083815260200190815260200160002060006101000a81548173ffffffffffffffffffffffffffffffffffffffff021916908373ffffffffffffffffffffffffffffffffffffffff160217905550808273ffffffffffffffffffffffffffffffffffffffff166110ae83610b0b565b73ffffffffffffffffffffffffffffffffffffffff167f8c5be1e5ebec7d5bd14f71427d1e84f3dd0314c0f7b2291e5b200ac8c7c3b92560405160405180910390a45050565b60008061110083610b0b565b90508073ffffffffffffffffffffffffffffffffffffffff168473ffffffffffffffffffffffffffffffffffffffff16148061114257506111418185610e56565b5b8061118057508373ffffffffffffffffffffffffffffffffffffffff16611168846105cd565b73ffffffffffffffffffffffffffffffffffffffff16145b91505092915050565b8273ffffffffffffffffffffffffffffffffffffffff166111a982610b0b565b73ffffffffffffffffffffffffffffffffffffffff16146111ff576040517f08c379a00000000000000000000000000000000000000000000000000000000081526004016111f690612ec0565b60405180910390fd5b600073ffffffffffffffffffffffffffffffffffffffff168273ffffffffffffffffffffffffffffffffffffffff16141561126f576040517f08c379a000000000000000000000000000000000000000000000000000000000815260040161126690612f20565b60405180910390fd5b61127a838383611a14565b61128560008261103b565b6001600360008573ffffffffffffffffffffffffffffffffffffffff1673ffffffffffffffffffffffffffffffffffffffff16815260200190815260200160002060008282546112d59190613257565b925050819055506001600360008473ffffffffffffffffffffffffffffffffffffffff1673ffffffffffffffffffffffffffffffffffffffff168152602001908152602001600020600082825461132c91906131d0565b92505081905550816002600083815260200190815260200160002060006101000a81548173ffffffffffffffffffffffffffffffffffffffff021916908373ffffffffffffffffffffffffffffffffffffffff160217905550808273ffffffffffffffffffffffffffffffffffffffff168473ffffffffffffffffffffffffffffffffffffffff167fddf252ad1be2c89b69c2b068fc378daa952ba7f163c4a11628f55a4df523b3ef60405160405180910390a46113eb838383611a24565b505050565b6113f8611033565b73ffffffffffffffffffffffffffffffffffffffff16611416610c89565b73ffffffffffffffffffffffffffffffffffffffff161461146c576040517f08c379a000000000000000000000000000000000000000000000000000000000815260040161146390613000565b60405180910390fd5b565b6000600b60009054906101000a900473ffffffffffffffffffffffffffffffffffffffff16905081600b60006101000a81548173ffffffffffffffffffffffffffffffffffffffff021916908373ffffffffffffffffffffffffffffffffffffffff1602179055508173ffffffffffffffffffffffffffffffffffffffff168173ffffffffffffffffffffffffffffffffffffffff167f8be0079c531659141344cd1fd0a4f28419497f9722a3daafe3b4186f6b6457e060405160405180910390a35050565b8173ffffffffffffffffffffffffffffffffffffffff168373ffffffffffffffffffffffffffffffffffffffff1614156115a3576040517f08c379a000000000000000000000000000000000000000000000000000000000815260040161159a90612f40565b60405180910390fd5b80600560008573ffffffffffffffffffffffffffffffffffffffff1673ffffffffffffffffffffffffffffffffffffffff16815260200190815260200160002060008473ffffffffffffffffffffffffffffffffffffffff1673ffffffffffffffffffffffffffffffffffffffff16815260200190815260200160002060006101000a81548160ff0219169083151502179055508173ffffffffffffffffffffffffffffffffffffffff168373ffffffffffffffffffffffffffffffffffffffff167f17307eab39ab6107e8899845ad3d59bd9653f200f220920489ca2b5937696c31836040516116949190612e03565b60405180910390a3505050565b6116ac848484611189565b6116b884848484611a29565b6116f7576040517f08c379a00000000000000000000000000000000000000000000000000000000081526004016116ee90612e60565b60405180910390fd5b50505050565b606061170882610fe8565b6000600a6000848152602001908152602001600020805461172890613341565b80601f016020809104026020016040519081016040528092919081815260200182805461175490613341565b80156117a15780601f10611776576101008083540402835291602001916117a1565b820191906000526020600020905b81548152906001019060200180831161178457829003601f168201915b5050505050905060006117b2611bc0565b90506000815114156117c857819250505061180b565b6000825111156117fd5780826040516020016117e5929190612d63565b6040516020818303038152906040529250505061180b565b61180684611bd7565b925050505b919050565b600081600001549050919050565b6001816000016000828254019250508190555050565b61184e828260405180602001604052806000815250611c3f565b5050565b61185b826119a8565b61189a576040517f08c379a000000000000000000000000000000000000000000000000000000000815260040161189190612f80565b60405180910390fd5b80600a600084815260200190815260200160002090805190602001906118c192919061253f565b505050565b60007f80ac58cd000000000000000000000000000000000000000000000000000000007bffffffffffffffffffffffffffffffffffffffffffffffffffffffff1916827bffffffffffffffffffffffffffffffffffffffffffffffffffffffff1916148061199157507f5b5e139f000000000000000000000000000000000000000000000000000000007bffffffffffffffffffffffffffffffffffffffffffffffffffffffff1916827bffffffffffffffffffffffffffffffffffffffffffffffffffffffff1916145b806119a157506119a082611c9a565b5b9050919050565b60008073ffffffffffffffffffffffffffffffffffffffff166002600084815260200190815260200160002060009054906101000a900473ffffffffffffffffffffffffffffffffffffffff1673ffffffffffffffffffffffffffffffffffffffff1614159050919050565b611a1f838383611d04565b505050565b505050565b6000611a4a8473ffffffffffffffffffffffffffffffffffffffff16611e18565b15611bb3578373ffffffffffffffffffffffffffffffffffffffff1663150b7a02611a73611033565b8786866040518563ffffffff1660e01b8152600401611a959493929190612db7565b602060405180830381600087803b158015611aaf57600080fd5b505af1925050508015611ae057506040513d601f19601f82011682018060405250810190611add919061293f565b60015b611b63573d8060008114611b10576040519150601f19603f3d011682016040523d82523d6000602084013e611b15565b606091505b50600081511415611b5b576040517f08c379a0000000000000000000000000000000000000000000000000000000008152600401611b5290612e60565b60405180910390fd5b805181602001fd5b63150b7a0260e01b7bffffffffffffffffffffffffffffffffffffffffffffffffffffffff1916817bffffffffffffffffffffffffffffffffffffffffffffffffffffffff191614915050611bb8565b600190505b949350505050565b606060405180602001604052806000815250905090565b6060611be282610fe8565b6000611bec611bc0565b90506000815111611c0c5760405180602001604052806000815250611c37565b80611c1684611e3b565b604051602001611c27929190612d63565b6040516020818303038152906040525b915050919050565b611c498383611fe8565b611c566000848484611a29565b611c95576040517f08c379a0000000000000000000000000000000000000000000000000000000008152600401611c8c90612e60565b60405180910390fd5b505050565b60007f01ffc9a7000000000000000000000000000000000000000000000000000000007bffffffffffffffffffffffffffffffffffffffffffffffffffffffff1916827bffffffffffffffffffffffffffffffffffffffffffffffffffffffff1916149050919050565b611d0f8383836121c2565b600073ffffffffffffffffffffffffffffffffffffffff168373ffffffffffffffffffffffffffffffffffffffff161415611d5257611d4d816121c7565b611d91565b8173ffffffffffffffffffffffffffffffffffffffff168373ffffffffffffffffffffffffffffffffffffffff1614611d9057611d8f8382612210565b5b5b600073ffffffffffffffffffffffffffffffffffffffff168273ffffffffffffffffffffffffffffffffffffffff161415611dd457611dcf8161237d565b611e13565b8273ffffffffffffffffffffffffffffffffffffffff168273ffffffffffffffffffffffffffffffffffffffff1614611e1257611e1182826124c0565b5b5b505050565b6000808273ffffffffffffffffffffffffffffffffffffffff163b119050919050565b60606000821415611e83576040518060400160405280600181526020017f30000000000000000000000000000000000000000000000000000000000000008152509050611fe3565b600082905060005b60008214611eb5578080611e9e906133a4565b915050600a82611eae9190613226565b9150611e8b565b60008167ffffffffffffffff811115611ef7577f4e487b7100000000000000000000000000000000000000000000000000000000600052604160045260246000fd5b6040519080825280601f01601f191660200182016040528015611f295781602001600182028036833780820191505090505b5090505b60008514611fdc57600182611f429190613257565b9150600a85611f5191906133ed565b6030611f5d91906131d0565b60f81b818381518110611f99577f4e487b7100000000000000000000000000000000000000000000000000000000600052603260045260246000fd5b60200101907effffffffffffffffffffffffffffffffffffffffffffffffffffffffffffff1916908160001a905350600a85611fd59190613226565b9450611f2d565b8093505050505b919050565b600073ffffffffffffffffffffffffffffffffffffffff168273ffffffffffffffffffffffffffffffffffffffff161415612058576040517f08c379a000000000000000000000000000000000000000000000000000000000815260040161204f90612fc0565b60405180910390fd5b612061816119a8565b156120a1576040517f08c379a000000000000000000000000000000000000000000000000000000000815260040161209890612ee0565b60405180910390fd5b6120ad60008383611a14565b6001600360008473ffffffffffffffffffffffffffffffffffffffff1673ffffffffffffffffffffffffffffffffffffffff16815260200190815260200160002060008282546120fd91906131d0565b92505081905550816002600083815260200190815260200160002060006101000a81548173ffffffffffffffffffffffffffffffffffffffff021916908373ffffffffffffffffffffffffffffffffffffffff160217905550808273ffffffffffffffffffffffffffffffffffffffff16600073ffffffffffffffffffffffffffffffffffffffff167fddf252ad1be2c89b69c2b068fc378daa952ba7f163c4a11628f55a4df523b3ef60405160405180910390a46121be60008383611a24565b5050565b505050565b6008805490506009600083815260200190815260200160002081905550600881908060018154018082558091505060019003906000526020600020016000909190919091505550565b6000600161221d84610bbd565b6122279190613257565b905060006007600084815260200190815260200160002054905081811461230c576000600660008673ffffffffffffffffffffffffffffffffffffffff1673ffffffffffffffffffffffffffffffffffffffff168152602001908152602001600020600084815260200190815260200160002054905080600660008773ffffffffffffffffffffffffffffffffffffffff1673ffffffffffffffffffffffffffffffffffffffff168152602001908152602001600020600084815260200190815260200160002081905550816007600083815260200190815260200160002081905550505b6007600084815260200190815260200160002060009055600660008573ffffffffffffffffffffffffffffffffffffffff1673ffffffffffffffffffffffffffffffffffffffff16815260200190815260200160002060008381526020019081526020016000206000905550505050565b600060016008805490506123919190613257565b90506000600960008481526020019081526020016000205490506000600883815481106123e7577f4e487b7100000000000000000000000000000000000000000000000000000000600052603260045260246000fd5b90600052602060002001549050806008838154811061242f577f4e487b7100000000000000000000000000000000000000000000000000000000600052603260045260246000fd5b9060005260206000200181905550816009600083815260200190815260200160002081905550600960008581526020019081526020016000206000905560088054806124a4577f4e487b7100000000000000000000000000000000000000000000000000000000600052603160045260246000fd5b6001900381819060005260206000200160009055905550505050565b60006124cb83610bbd565b905081600660008573ffffffffffffffffffffffffffffffffffffffff1673ffffffffffffffffffffffffffffffffffffffff168152602001908152602001600020600083815260200190815260200160002081905550806007600084815260200190815260200160002081905550505050565b82805461254b90613341565b90600052602060002090601f01602090048101928261256d57600085556125b4565b82601f1061258657805160ff19168380011785556125b4565b828001600101855582156125b4579182015b828111156125b3578251825591602001919060010190612598565b5b5090506125c191906125c5565b5090565b5b808211156125de5760008160009055506001016125c6565b5090565b60006125f56125f084613120565b6130fb565b90508281526020810184848401111561260d57600080fd5b6126188482856132ff565b509392505050565b600061263361262e84613151565b6130fb565b90508281526020810184848401111561264b57600080fd5b6126568482856132ff565b509392505050565b60008135905061266d81613a13565b92915050565b60008135905061268281613a2a565b92915050565b60008135905061269781613a41565b92915050565b6000815190506126ac81613a41565b92915050565b600082601f8301126126c357600080fd5b81356126d38482602086016125e2565b91505092915050565b600082601f8301126126ed57600080fd5b81356126fd848260208601612620565b91505092915050565b60008135905061271581613a58565b92915050565b60006020828403121561272d57600080fd5b600061273b8482850161265e565b91505092915050565b6000806040838503121561275757600080fd5b60006127658582860161265e565b92505060206127768582860161265e565b9150509250929050565b60008060006060848603121561279557600080fd5b60006127a38682870161265e565b93505060206127b48682870161265e565b92505060406127c586828701612706565b9150509250925092565b600080600080608085870312156127e557600080fd5b60006127f38782880161265e565b94505060206128048782880161265e565b935050604061281587828801612706565b925050606085013567ffffffffffffffff81111561283257600080fd5b61283e878288016126b2565b91505092959194509250565b6000806040838503121561285d57600080fd5b600061286b8582860161265e565b925050602061287c85828601612673565b9150509250929050565b6000806040838503121561289957600080fd5b60006128a78582860161265e565b925050602083013567ffffffffffffffff8111156128c457600080fd5b6128d0858286016126dc565b9150509250929050565b600080604083850312156128ed57600080fd5b60006128fb8582860161265e565b925050602061290c85828601612706565b9150509250929050565b60006020828403121561292857600080fd5b600061293684828501612688565b91505092915050565b60006020828403121561295157600080fd5b600061295f8482850161269d565b91505092915050565b60006020828403121561297a57600080fd5b600061298884828501612706565b91505092915050565b61299a8161328b565b82525050565b6129a98161329d565b82525050565b60006129ba82613182565b6129c48185613198565b93506129d481856020860161330e565b6129dd816134da565b840191505092915050565b60006129f38261318d565b6129fd81856131b4565b9350612a0d81856020860161330e565b612a16816134da565b840191505092915050565b6000612a2c8261318d565b612a3681856131c5565b9350612a4681856020860161330e565b80840191505092915050565b6000612a5f602b836131b4565b9150612a6a826134eb565b604082019050919050565b6000612a826032836131b4565b9150612a8d8261353a565b604082019050919050565b6000612aa56026836131b4565b9150612ab082613589565b604082019050919050565b6000612ac86024836131b4565b9150612ad3826135d8565b604082019050919050565b6000612aeb6025836131b4565b9150612af682613627565b604082019050919050565b6000612b0e601c836131b4565b9150612b1982613676565b602082019050919050565b6000612b316006836131b4565b9150612b3c8261369f565b602082019050919050565b6000612b546024836131b4565b9150612b5f826136c8565b604082019050919050565b6000612b776019836131b4565b9150612b8282613717565b602082019050919050565b6000612b9a6029836131b4565b9150612ba582613740565b604082019050919050565b6000612bbd602e836131b4565b9150612bc88261378f565b604082019050919050565b6000612be0603e836131b4565b9150612beb826137de565b604082019050919050565b6000612c036020836131b4565b9150612c0e8261382d565b602082019050919050565b6000612c266017836131b4565b9150612c3182613856565b602082019050919050565b6000612c496020836131b4565b9150612c548261387f565b602082019050919050565b6000612c6c6018836131b4565b9150612c77826138a8565b602082019050919050565b6000612c8f6021836131b4565b9150612c9a826138d1565b604082019050919050565b6000612cb26014836131b4565b9150612cbd82613920565b602082019050919050565b6000612cd56000836131a9565b9150612ce082613949565b600082019050919050565b6000612cf86010836131b4565b9150612d038261394c565b602082019050919050565b6000612d1b602c836131b4565b9150612d2682613975565b604082019050919050565b6000612d3e602e836131b4565b9150612d49826139c4565b604082019050919050565b612d5d816132f5565b82525050565b6000612d6f8285612a21565b9150612d7b8284612a21565b91508190509392505050565b6000612d9282612cc8565b9150819050919050565b6000602082019050612db16000830184612991565b92915050565b6000608082019050612dcc6000830187612991565b612dd96020830186612991565b612de66040830185612d54565b8181036060830152612df881846129af565b905095945050505050565b6000602082019050612e1860008301846129a0565b92915050565b60006020820190508181036000830152612e3881846129e8565b905092915050565b60006020820190508181036000830152612e5981612a52565b9050919050565b60006020820190508181036000830152612e7981612a75565b9050919050565b60006020820190508181036000830152612e9981612a98565b9050919050565b60006020820190508181036000830152612eb981612abb565b9050919050565b60006020820190508181036000830152612ed981612ade565b9050919050565b60006020820190508181036000830152612ef981612b01565b9050919050565b60006020820190508181036000830152612f1981612b24565b9050919050565b60006020820190508181036000830152612f3981612b47565b9050919050565b60006020820190508181036000830152612f5981612b6a565b9050919050565b60006020820190508181036000830152612f7981612b8d565b9050919050565b60006020820190508181036000830152612f9981612bb0565b9050919050565b60006020820190508181036000830152612fb981612bd3565b9050919050565b60006020820190508181036000830152612fd981612bf6565b9050919050565b60006020820190508181036000830152612ff981612c19565b9050919050565b6000602082019050818103600083015261301981612c3c565b9050919050565b6000602082019050818103600083015261303981612c5f565b9050919050565b6000602082019050818103600083015261305981612c82565b9050919050565b6000602082019050818103600083015261307981612ca5565b9050919050565b6000602082019050818103600083015261309981612ceb565b9050919050565b600060208201905081810360008301526130b981612d0e565b9050919050565b600060208201905081810360008301526130d981612d31565b9050919050565b60006020820190506130f56000830184612d54565b92915050565b6000613105613116565b90506131118282613373565b919050565b6000604051905090565b600067ffffffffffffffff82111561313b5761313a6134ab565b5b613144826134da565b9050602081019050919050565b600067ffffffffffffffff82111561316c5761316b6134ab565b5b613175826134da565b9050602081019050919050565b600081519050919050565b600081519050919050565b600082825260208201905092915050565b600081905092915050565b600082825260208201905092915050565b600081905092915050565b60006131db826132f5565b91506131e6836132f5565b9250827fffffffffffffffffffffffffffffffffffffffffffffffffffffffffffffffff0382111561321b5761321a61341e565b5b828201905092915050565b6000613231826132f5565b915061323c836132f5565b92508261324c5761324b61344d565b5b828204905092915050565b6000613262826132f5565b915061326d836132f5565b9250828210156132805761327f61341e565b5b828203905092915050565b6000613296826132d5565b9050919050565b60008115159050919050565b60007fffffffff0000000000000000000000000000000000000000000000000000000082169050919050565b600073ffffffffffffffffffffffffffffffffffffffff82169050919050565b6000819050919050565b82818337600083830152505050565b60005b8381101561332c578082015181840152602081019050613311565b8381111561333b576000848401525b50505050565b6000600282049050600182168061335957607f821691505b6020821081141561336d5761336c61347c565b5b50919050565b61337c826134da565b810181811067ffffffffffffffff8211171561339b5761339a6134ab565b5b80604052505050565b60006133af826132f5565b91507fffffffffffffffffffffffffffffffffffffffffffffffffffffffffffffffff8214156133e2576133e161341e565b5b600182019050919050565b60006133f8826132f5565b9150613403836132f5565b9250826134135761341261344d565b5b828206905092915050565b7f4e487b7100000000000000000000000000000000000000000000000000000000600052601160045260246000fd5b7f4e487b7100000000000000000000000000000000000000000000000000000000600052601260045260246000fd5b7f4e487b7100000000000000000000000000000000000000000000000000000000600052602260045260246000fd5b7f4e487b7100000000000000000000000000000000000000000000000000000000600052604160045260246000fd5b6000601f19601f8301169050919050565b7f455243373231456e756d657261626c653a206f776e657220696e646578206f7560008201527f74206f6620626f756e6473000000000000000000000000000000000000000000602082015250565b7f4552433732313a207472616e7366657220746f206e6f6e20455243373231526560008201527f63656976657220696d706c656d656e7465720000000000000000000000000000602082015250565b7f4f776e61626c653a206e6577206f776e657220697320746865207a65726f206160008201527f6464726573730000000000000000000000000000000000000000000000000000602082015250565b7f4f776e65722053616e27742062757920686973206d696e746564204e696b652060008201527f53686f6500000000000000000000000000000000000000000000000000000000602082015250565b7f4552433732313a207472616e736665722066726f6d20696e636f72726563742060008201527f6f776e6572000000000000000000000000000000000000000000000000000000602082015250565b7f4552433732313a20746f6b656e20616c7265616479206d696e74656400000000600082015250565b7f4661696c65640000000000000000000000000000000000000000000000000000600082015250565b7f4552433732313a207472616e7366657220746f20746865207a65726f2061646460008201527f7265737300000000000000000000000000000000000000000000000000000000602082015250565b7f4552433732313a20617070726f766520746f2063616c6c657200000000000000600082015250565b7f4552433732313a2061646472657373207a65726f206973206e6f74206120766160008201527f6c6964206f776e65720000000000000000000000000000000000000000000000602082015250565b7f45524337323155524953746f726167653a2055524920736574206f66206e6f6e60008201527f6578697374656e7420746f6b656e000000000000000000000000000000000000602082015250565b7f4552433732313a20617070726f76652063616c6c6572206973206e6f7420746f60008201527f6b656e206f776e6572206e6f7220617070726f76656420666f7220616c6c0000602082015250565b7f4552433732313a206d696e7420746f20746865207a65726f2061646472657373600082015250565b7f4d6178696d756d20737570706c79206578636565646564000000000000000000600082015250565b7f4f776e61626c653a2063616c6c6572206973206e6f7420746865206f776e6572600082015250565b7f4552433732313a20696e76616c696420746f6b656e2049440000000000000000600082015250565b7f4552433732313a20617070726f76616c20746f2063757272656e74206f776e6560008201527f7200000000000000000000000000000000000000000000000000000000000000602082015250565b7f496e73756666696369656e742042616c616e6365000000000000000000000000600082015250565b50565b7f494420646f65736e277420657869737400000000000000000000000000000000600082015250565b7f455243373231456e756d657261626c653a20676c6f62616c20696e646578206f60008201527f7574206f6620626f756e64730000000000000000000000000000000000000000602082015250565b7f4552433732313a2063616c6c6572206973206e6f7420746f6b656e206f776e6560008201527f72206e6f7220617070726f766564000000000000000000000000000000000000602082015250565b613a1c8161328b565b8114613a2757600080fd5b50565b613a338161329d565b8114613a3e57600080fd5b50565b613a4a816132a9565b8114613a5557600080fd5b50565b613a61816132f5565b8114613a6c57600080fd5b5056fea2646970667358221220c95c889b3093b54b045fc9cfefa951a81a292624846984bdda1b5c1cd7cda62b64736f6c63430008040033",
  "linkReferences": {},
  "deployedLinkReferences": {}
}